:100000000C94D6000C94FE000C94FE000C94FE00A0
:100010000C94FE000C94FE000C94FE000C94FE0068
:100020000C94FE000C9435070C9494040C94030576
:100030000C94FE000C94FE000C94FE000C94FE0048
:100040000C94FE000C94FE000C94FE000C94FE0038
:100050000C94FE000C94FE000C94FE000C944A04D8
:100060000C94FE000C94FE000C94FE000C94FE0018
:100070000C94FE000C94FE000C94FE000C94FE0008
:100080000C94FE000C94FE000C94FE000C94FE00F8
:100090000C94FE000C94FE000C94FE000C94FE00E8
:1000A0000C94FE000C94FE000C94FE00080B000261
:1000B0000202000009040000010202000005240001
:1000C0001001052401010104240206052406000193
:1000D0000705810310004009040100020A00000026
:1000E00007050202400000070583024000000403E8
:1000F000090412010002EF02014041233680000191
:100100000102030141726475696E6F204C4C43001B
:1001100041726475696E6F204C656F6E6172646FB9
:10012000000000000200090F0000030401000C00A1
:1001300000000000000000000000000000000000BF
:10014000000000002300260029002C002F000000E2
:100150000000240027002A002D00300000000000CD
:10016000250028002B002E003100040404040403A1
:100170000405020202020403020202020606060647
:10018000060604040202020404040802011040806E
:10019000401020408040800802040180402010026E
:1001A00001108010204040201E08C20A11241FBEEA
:1001B000CFEFDAE0DEBFCDBF11E0A0E0B1E0E6E2D4
:1001C000F6E102C005900D92A238B107D9F722E0FE
:1001D000A2E8B1E001C01D92A435B207E1F710E03A
:1001E000C5EDD0E004C02197FE010E94000BC43D84
:1001F000D107C9F70E94DF080C94060B0C9400008D
:10020000FC018091E401882311F13FB7F89482E06A
:100210008093E9002091F200822F90E018161906D1
:1002200014F481E090E0882339F0289844E6409364
:10023000E3014091F1004083222339F02091F20044
:10024000211103C02BE62093E8003FBF08958FEFF4
:100250009FEF08952FB7F89483E08093E900909181
:10026000E800892F807295FF04C09091F20080E42D
:10027000891B2FBF08958091DB0181110DC082E0A1
:100280008093D70184E08093D8011092DA01109214
:10029000D90181E08093DB0187ED91E008953FB7BC
:1002A000F8948091D3019091D401A091D501B0919F
:1002B000D60126B5A89B05C02F3F19F00196A11DB8
:1002C000B11D3FBFBA2FA92F982F8827BC01CD01A0
:1002D000620F711D811D911D42E0660F771F881FFF
:1002E000991F4A95D1F70895CF92DF92EF92FF922E
:1002F0000E944F016B017C010E944F016C197D0926
:100300008E099F09683E734081059105A8F3FF900F
:10031000EF90DF90CF9008954091C4015091C501B6
:100320002091C2013091C30142175307B4F4909158
:10033000E8009570E1F39091E80092FD19C0809378
:10034000F1008091C4019091C50101968F739927A6
:10035000892B19F48EEF8093E8008091C40190916D
:10036000C50101969093C5018093C40181E0089571
:1003700080E00895EF92FF920F931F93CF93DF9346
:10038000F82E192FE62E042F81E0860F880F0E9489
:100390008C0183E00E948C01CF2DD12FEC0EFD2E1D
:1003A000F11CCE15DF05B9F007FF13C0FE018491E3
:1003B0000E948C01182F80E00E948C0181232196DD
:1003C0008111EFCFDF91CF911F910F91FF90EF90AF
:1003D00008958881EDCF81E0F5CFDF92EF92FF9213
:1003E0000F931F93CF93DF93D82E8A01EB017B01EC
:1003F000E40EF51ECE15DF0559F0D7FE12C0FE0142
:1004000084910E948C0121968111F4CF0FEF1FEF90
:10041000C801DF91CF911F910F91FF90EF90DF9076
:1004200008958881EECF0F931F93CF93DF931F9290
:10043000CDB7DEB782E0898342E450E06CEA70E039
:1004400080E80E94ED010E943B01DC0112960D91B3
:100450001C910115110589F0D801ED91FC910280E4
:10046000F381E02DBE016F5F7F4FC801099597FDB5
:1004700004C0F80100851185ECCF89810F90DF91D0
:10048000CF911F910F910895615030F02091F100AC
:10049000FC0120830196F8CF289884E68093E3013D
:1004A0000895AF92BF92CF92DF92EF92FF920F9397
:1004B0001F93CF93DF936C017B018B01040F151FFA
:1004C000EB015E01AE18BF08C017D10759F0699162
:1004D000D601ED91FC910190F081E02DC6010995C6
:1004E000892B79F7C501DF91CF911F910F91FF9073
:1004F000EF90DF90CF90BF90AF9008958F929F9232
:10050000AF92BF92CF92DF92EF92FF920F931F9321
:10051000CF93DF936C017B018A0180910B018823CB
:1005200009F458C08091E401882309F453C08091F4
:10053000C80180FF05C08091E00082608093E000E8
:10054000E801B12C8AEFA82E93E0892E2AE3922E9F
:10055000209711F4BB20B9F10E942A01811106C035
:10056000AA94AA20B9F10E947401F2CF8C171D063B
:1005700011F00CF08C2F9FB7F8948092E900209135
:10058000E80025FD02C09FBFE3CF282F30E0C21B4B
:10059000D30BF701815020F041914093F100FACF45
:1005A000E20EF31EBB2021F09092E800B12CEBCFBD
:1005B0008091E80085FDE7CF9092E800BB24B394DA
:1005C000209709F3F3CF5D9884E68093C701101656
:1005D00011063CF081E090E0F6019383828310E005
:1005E00000E0C801DF91CF911F910F91FF90EF9034
:1005F000DF90CF90BF90AF909F908F900895CF9352
:10060000DF931F92CDB7DEB76983DC01ED91FC91DA
:100610000280F381E02D41E050E0BE016F5F7F4F2B
:1006200009950F90DF91CF91089583E08093E900C1
:100630008091F200882319F08AE38093E8000895FE
:100640000E942A0190E00895CF93DF931F92CDB7C7
:10065000DEB7FC018485958597FD08C02FEF3FEF3D
:10066000358724870F90DF91CF910895CE010196B1
:100670000E940001019719F4898190E0F3CF8FEF78
:100680009FEFF0CF0F931F93CF93DF931F92CDB7C0
:10069000DEB78C01FC018485958597FF0BC0CE01E8
:1006A00001960E940001019771F4898190E0F801A0
:1006B00095878487F801848595850F90DF91CF9188
:1006C0001F910F9108958FEF9FEFF1CFFC0184856B
:1006D000958597FD0BC09FB7F89482E08093E90061
:1006E0008091F2009FBF90E0019608959FB7F89423
:1006F00082E08093E9008091F2009FBF90E008952E
:100700002091CC013091CD012817390771F49091D7
:10071000CA018091CB01981741F0E091CA01F0E045
:10072000EE57FE4F808190E008958FEF9FEF089580
:100730000895EF92FF920F931F93CF93DF93DC0105
:100740005C96ED90FC905D97E114F10479F481E002
:1007500090E013969C938E93129790E080E0DF9147
:10076000CF911F910F91FF90EF9008955196ED91C9
:10077000FC91529750968C915097982F90950FB767
:100780005E962C915E97122F127021FD6095F89461
:100790002081112319F1282B2083E7012197F1F7FC
:1007A00028E0462F50E0308160FF1AC0382B30839C
:1007B000E7012197F1F7BA0175956795215089F7FF
:1007C000112381F08081892380830FBF5C968D91F6
:1007D0009C910197F1F781E090E0C1CF2923DCCF14
:1007E0003923E5CF9081892BEFCF2091CC01309137
:1007F000CD012817390761F48091CB012091CA01FE
:1008000090E0805C9F4F821B91098F739927089518
:1008100090E080E008952091CC013091CD0128171F
:100820003907B9F49091CA018091CB01981789F0EA
:10083000E091CA01F0E0EE57FE4F80812091CA019D
:1008400030E02F5F3F4F2F7333272093CA0190E092
:1008500008958FEF9FEF089590E080E00895FC01E8
:1008600001900020E9F73197AF01481B590BBC01FB
:1008700085EE91E00C947E02CF93DF930E942F04CB
:10088000EC0189E391E00E942F048C0F9D1FDF9102
:10089000CF9108951F920F920FB60F9211242F93AC
:1008A0003F938F939F93AF93BF938091CF0190918C
:1008B000D001A091D101B091D2013091CE0123E0BD
:1008C000230F2D3758F50196A11DB11D2093CE01A0
:1008D0008093CF019093D001A093D101B093D20126
:1008E0008091D3019091D401A091D501B091D6010E
:1008F0000196A11DB11D8093D3019093D401A093C3
:10090000D501B093D601BF91AF919F918F913F9147
:100910002F910F900FBE0F901F90189526E8230F70
:100920000296A11DB11DD2CF1F920F920FB60F924A
:1009300011248F939F938091E1009091E100937F28
:100940009093E10083FF0FC01092E90091E0909333
:10095000EB001092EC0092E39093ED001092E40112
:1009600098E09093F00082FF22C093E09093E9001A
:100970009091F200992319F09AE39093E8009091F6
:10098000C701992341F09091C70191509093C701FD
:10099000911101C05D9A9091E301992341F09091EA
:1009A000E30191509093E301911101C0289A84FFD3
:1009B00018C08091E2008E7E81608093E200809179
:1009C000E1008F7E8093E1008091C8018E7E80617E
:1009D0008093C8019F918F910F900FBE0F901F9031
:1009E000189580FFF7CF8091E2008E7E8061809322
:1009F000E2008091E1008E7E8093E1008091C80149
:100A00008E7E8160E5CF1F920F920FB60F92112458
:100A1000CF92DF92EF92FF920F931F932F933F930A
:100A20004F935F936F937F938F939F93AF93BF93F6
:100A3000EF93FF93CF93DF93CDB7DEB76C97DEBF15
:100A4000CDBF1092E9008091E80083FF25C068E0E7
:100A5000CE0145960E94440282EF8093E8008D8982
:100A600087FF39C09091E80090FFFCCF982F9076D7
:100A700009F034C19E894F89588D2F89F88C9111C6
:100A800031C0803861F58091C9018093F1001092E6
:100A9000F1008EEF8093E8006C960FB6F894DEBFFD
:100AA0000FBECDBFDF91CF91FF91EF91BF91AF917D
:100AB0009F918F917F916F915F914F913F912F9176
:100AC0001F910F91FF90EF90DF90CF900F900FBE8E
:100AD0000F901F9018959EEF9093E800C7CF10924B
:100AE000F100D5CF913059F48111D3CF4130510568
:100AF00081F68091C9018D7F8093C901CACF93305F
:100B000049F48111C6CF4130510519F68091C901D0
:100B10008260F2CF953041F48091E80080FFFCCFF5
:100B200020682093E300B5CF963009F0A9C00B8D63
:100B30001C8D22E01092E9001092C5011092C401B0
:100B4000F2122EC01092C3011092C2010E94130231
:100B50001F8299E09983FA8291E09E8390EA9887B8
:100B60009AEF99872091C4013091C501275F3F4FCB
:100B70003C832B838D831092E9001092C501109263
:100B8000C4011093C3010093C20149E050E0BE01CB
:100B90006F5F7F4F80E00E94ED010E94130279CFCA
:100BA0001093C3010093C2010E943B01DC01129625
:100BB0000D911C910115110509F451C1D801ED9158
:100BC000FC910480F581E02DBE016B5E7F4FC80172
:100BD0000995009709F03EC1F80100851185EACF1B
:100BE000F3E0FF120EC08F89882309F440C08230E1
:100BF00061F440E860E180E191E00E94BA01811176
:100C000048CF81E28093EB0047CF813029F440E860
:100C10006BE084E091E0F1CF833099F70E943B01D3
:100C2000DC011296ED90FC908E010F5F1F4F680162
:100C3000E114F10479F0D701ED91FC910680F78180
:100C4000E02DB801C7010995080F111DF701E084D7
:100C5000F184EECFD8011C92F60101900020E9F753
:100C60003197BF016C197D0940E0C601C6CF6EEE19
:100C700070E0FB01449150E080E80E94ED0109CF53
:100C8000973009F4BECF983021F481E08093F100D1
:100C900000CF993009F0FDCE837009F0B2CFEFE0BC
:100CA000F1E081E031E096E32191222371F080931D
:100CB000E9003093EB00DF0111972C912093EC00B9
:100CC0009093ED008F5F873079F78EE78093EA008D
:100CD0001092EA008F898093E401DBCE8B8D9C8D8E
:100CE0001092E9001092C5011092C4019093C301C3
:100CF0008093C201898D811192C08E899D89913A1C
:100D000049F4813209F07DCF47E050E064E071E0C2
:100D100080E0B3CF913209F074CF833269F48F89C8
:100D2000988DB0E0A0E08093000190930101A09322
:100D30000201B0930301ADCE803269F48091E800E6
:100D400082FFFCCF67E084E091E00E9444028BEFD9
:100D50008093E8009ECE823209F09BCE8F898093EB
:100D60000B01EEEFFFE7859194918B3F9C4D51F184
:100D7000E0E0F8E08091040190910501A091060166
:100D8000B0910701803B9440A105B105F1F4809139
:100D90000B0180FD1AC0EE3F8AE0F80789F587E76E
:100DA00097E791838083809160008093C60188E1FA
:100DB0009BE00FB6F894A895809360000FBE9093C7
:100DC000600067CEEEEFFAE0D5CF80819181873762
:100DD000974709F05ECEA895809160008861809366
:100DE00060008091C60180936000EE3F2AE0F20728
:100DF00089F08091FE0A9091FF0A9183808349CE09
:100E0000808191818737980751F29093FF0A8093F0
:100E1000FE0AC5CF1092FF0A1092FE0A3ACE0E9437
:100E20003B01DC0112960D911C910115110509F48D
:100E3000E8CED801ED91FC910190F081E02DBE014A
:100E40006B5E7F4FC8010995811123CEF8010085A3
:100E50001185EBCF181619060CF41BCED2CEF1E09B
:100E6000FF12BECE62EF70E004CF1F920F920FB65A
:100E70000F9211242F933F934F935F936F937F9320
:100E80008F939F93AF93BF93EF93FF93E091CC0128
:100E9000F091CD01309749F0A685B7858585968D6F
:100EA00091FF14C09C918923A1F4FF91EF91BF9110
:100EB000AF919F918F917F916F915F914F913F91F2
:100EC0002F910F900FBE0F901F9018959C91892322
:100ED00061F7A389B4899C918589809589238C9336
:100EE000868997890197F1F7608D718DA685B78501
:100EF000558538E020E0CB010197F1F7822F90E093
:100F000095958795282F4C91452309F020683150FD
:100F100091F7868D81FD20958091CB0190E001961F
:100F20008F7399273091CA01381799F0A091CB019E
:100F3000B0E0AE57BE4F2C938093CB01828D938D42
:100F40000197F1F7A389B4898C919589892B8C93AA
:100F5000ACCF868D8160868FF1CF282F30E0F901EC
:100F6000EF5DFE4F9491F901E757FE4F84912659AA
:100F70003E4FF9012491222309F430C09923E9F06E
:100F800091509F30D0F4E92FF0E0E753F84F0C94E4
:100F9000000BF707FB07D807EF07F307DD07DD07AF
:100FA000DD07FE07040808080C081208DD0716080C
:100FB000909180009F7790938000E22FF0E0EE0FF9
:100FC000FF1FE45AFE4FA591B4919FB7F894EC919E
:100FD000611132C080958E238C939FBF08959091AC
:100FE00080009F7DE8CF90918000977FE4CF94B5FB
:100FF0009F7794BDE2CF94B59F7DFBCF90919000F9
:101000009F7790939000D9CF909190009F7DF9CFDA
:1010100090919000977FF5CF9091C0009F7790932B
:10102000C000CBCF9091C0009F7DF9CF9091C200BE
:10103000977F9093C200C1CF8E2BCECF0F931F937B
:10104000CF93DF931092E8011092E70188EE93E0CE
:10105000A0E0B0E08093E9019093EA01A093EB0156
:10106000B093EC0129E131E03093E6012093E501F2
:101070002FEF3FEF3093F2012093F10110923802ED
:10108000109237028093390290933A02A0933B0268
:10109000B0933C028BE291E090933602809335024C
:1010A00010924C0210924B0210924E0210924D027E
:1010B0001092500210924F0210925202109251025E
:1010C000609153026E7F6D7F6093530266956170ED
:1010D00081E068270E94AD074AE851E0FA01649177
:1010E0008BE691E0FC012491222399F030E0220F5D
:1010F000331FF901E25BFE4FA591B491F901E45A67
:10110000FE4F259134912FB7F8943C91632B6C934B
:101110002FBFFA01449140934502FC018491E82FCE
:10112000F0E0EE0FFF1FE45AFE4F859194919093EB
:1011300047028093460209E811E0F8012491CAE6CB
:10114000D1E0FE0184918823C9F090E0880F991FB7
:10115000FC01E25BFE4FA591B491FC01E45AFE4F05
:10116000459154913FB7F8949C91822F8095982394
:101170009C93FA019081892380833FBF8091530221
:1011800081FD04C061E080E00E94AD071092410241
:10119000F801049100934202FE01C491EC2FF0E0AB
:1011A000EE0FFF1FE05CFE4F8591949190934402F7
:1011B00080934302DF91CF911F910F910895CF93B8
:1011C000DF93CDB7DEB7A1970FB6F894DEBF0FBEA1
:1011D000CDBF789484B5826084BD84B5816084BDC0
:1011E00085B5826085BD85B5816085BD80916E00C5
:1011F000816080936E0010928100809181008260F6
:101200008093810080918100816080938100809132
:101210008000816080938000809191008260809343
:101220009100809191008160809391008091900065
:101230008160809390008091C10084608093C100A0
:101240008091C10082608093C1008091C100816063
:101250008093C1008091C30081608093C30080911E
:10126000C00082608093C0008091C2008160809342
:10127000C20080917A00846080937A0080917A0025
:10128000826080937A0080917A00816080937A00F6
:1012900080917A00806880937A001092E401109225
:1012A000C9011092C8018091D70081608093D70056
:1012B00080EA8093D80089B5806189BD89B5826054
:1012C00089BD09B400FEFDCF0E9474018091D80051
:1012D0008F7C80618093D8008091E000807F809334
:1012E000E0008091E1008E7E8093E1008DE08093AC
:1012F000E200559A209A8FEF9FEF9093F20180932E
:10130000F1018CE391E00E942F0487E491E00E94B8
:101310003C0484E591E00E942F048FE591E00E9457
:101320003C0485E491E00E943C041092500210922B
:101330004F0210924E0210924D0210924C021092E7
:101340004B0285E690E09093520280935102809187
:10135000410228EF280F243048F092EF980F943084
:1013600028F096EE980F933008F057C041E250E015
:1013700050934C0240934B0243E650E050934E0290
:1013800040934D0242E450E05093500240934F028C
:10139000243050F092EF980F943030F096EE980F82
:1013A000F0E0E0E0933010F4E8E6F0E090812430E3
:1013B00048F022EF280F243028F08A51F0E0E0E0D6
:1013C000833010F4E8E6F0E09160908320914102D0
:1013D00038EF320F343048F082EF820F843028F03B
:1013E00086EE820F833008F0B7C08BE690E09093D2
:1013F000490280934802343008F0B1C02450330BC6
:1014000081E001C0880F2A95EAF780934A02809113
:101410005102909152020197F1F780914F02909101
:101420005002892B49F1E091CC01F091CD0182E08D
:10143000E533F80709F1309739F0A389B4899C9115
:101440008589809589238C93809153028E7F809328
:1014500053021092CB011092CA0185E392E090935F
:10146000CD018093CC01E0914802F0914902808146
:1014700090914A02892B80838BE691E00E942F0491
:1014800019A28E010F5D1F4F20E036E940E050E0C9
:101490009AE0892E912CA12CB12C7E01ECE1EE0E6C
:1014A000F11CCA01B901A50194010E94DE0A605D28
:1014B000F80162938F01EE15FF0599F7CF010E94A5
:1014C0002F0489E391E00E942F0485E491E00E94BB
:1014D0003C0480E0E82E80E0F82E01E085E392E015
:1014E0000E94F503892B59F085E392E00E940B04DA
:1014F00080930D01682F85EE91E00E94FF0285EE3A
:1015000091E00E946603892B09F185EE91E00E942B
:101510002403182F80930D01682F85E392E00E9429
:10152000990380910C01882331F080E891E00E94BA
:101530002F0410920C01612F85EE91E00E94FF02B2
:1015400080910D018A3011F400930C01E114F10433
:1015500029F20E940000C2CF90E080E048CF88E0EE
:101560002E3009F452CF82E02F3009F44ECF84E0C0
:10157000203109F44ACF81E0213109F446CF2651C8
:10158000330B3ECF8BE291E090933602809335028D
:101590008091CC019091CD018553924071F4E091FE
:1015A0004802F0914902908180914A0280958923F6
:1015B00080831092CD011092CC010895A1E21A2EE1
:1015C000AA1BBB1BFD010DC0AA1FBB1FEE1FFF1FE7
:1015D000A217B307E407F50720F0A21BB30BE40B37
:1015E000F50B661F771F881F991F1A9469F760957E
:1015F0007095809590959B01AC01BD01CF01089538
:10160000EE0FFF1F0590F491E02D099410E0C5ED59
:10161000D0E004C0FE010E94000B2196C63DD10718
:06162000C9F7F894FFCFAA
:10162600FFFFFFFF00E1000000000000012000C1F5
:10163600808100000000000000FF027E02200315EA
:101646000366032403420300000000990351022CA1
:10165600049803F5030B0480030D0A00536B6574AD
:1016660063683A202020007372632F6D61696E2EC5
:101676006370700055706C6F616465643A20004158
:10168600707220203920323032360042547365722F
:1016960069616C20737461727465642061742000E2
:0216A6003E0004
:00000001FF
